{
  "contractName": "TaskCommitment",
  "abi": [
    {
      "anonymous": false,
      "inputs": [
        {
          "indexed": false,
          "internalType": "uint256",
          "name": "id",
          "type": "uint256"
        },
        {
          "indexed": false,
          "internalType": "address",
          "name": "owner",
          "type": "address"
        },
        {
          "indexed": false,
          "internalType": "uint256",
          "name": "stake",
          "type": "uint256"
        }
      ],
      "name": "TaskCompleted",
      "type": "event"
    },
    {
      "anonymous": false,
      "inputs": [
        {
          "indexed": false,
          "internalType": "uint256",
          "name": "id",
          "type": "uint256"
        },
        {
          "indexed": false,
          "internalType": "address",
          "name": "owner",
          "type": "address"
        },
        {
          "indexed": false,
          "internalType": "string",
          "name": "content",
          "type": "string"
        },
        {
          "indexed": false,
          "internalType": "uint256",
          "name": "stake",
          "type": "uint256"
        },
        {
          "indexed": false,
          "internalType": "uint256",
          "name": "deadline",
          "type": "uint256"
        },
        {
          "indexed": false,
          "internalType": "address",
          "name": "penaltyAddress",
          "type": "address"
        }
      ],
      "name": "TaskCreated",
      "type": "event"
    },
    {
      "anonymous": false,
      "inputs": [
        {
          "indexed": false,
          "internalType": "uint256",
          "name": "id",
          "type": "uint256"
        },
        {
          "indexed": false,
          "internalType": "address",
          "name": "penaltyAddress",
          "type": "address"
        },
        {
          "indexed": false,
          "internalType": "uint256",
          "name": "stake",
          "type": "uint256"
        }
      ],
      "name": "TaskFailed",
      "type": "event"
    },
    {
      "constant": true,
      "inputs": [],
      "name": "taskCount",
      "outputs": [
        {
          "internalType": "uint256",
          "name": "",
          "type": "uint256"
        }
      ],
      "payable": false,
      "stateMutability": "view",
      "type": "function"
    },
    {
      "constant": true,
      "inputs": [
        {
          "internalType": "uint256",
          "name": "",
          "type": "uint256"
        }
      ],
      "name": "tasks",
      "outputs": [
        {
          "internalType": "uint256",
          "name": "id",
          "type": "uint256"
        },
        {
          "internalType": "address payable",
          "name": "owner",
          "type": "address"
        },
        {
          "internalType": "string",
          "name": "content",
          "type": "string"
        },
        {
          "internalType": "uint256",
          "name": "stake",
          "type": "uint256"
        },
        {
          "internalType": "uint256",
          "name": "deadline",
          "type": "uint256"
        },
        {
          "internalType": "address payable",
          "name": "penaltyAddress",
          "type": "address"
        },
        {
          "internalType": "enum TaskCommitment.Status",
          "name": "status",
          "type": "uint8"
        }
      ],
      "payable": false,
      "stateMutability": "view",
      "type": "function"
    },
    {
      "constant": false,
      "inputs": [
        {
          "internalType": "string",
          "name": "_content",
          "type": "string"
        },
        {
          "internalType": "uint256",
          "name": "_deadline",
          "type": "uint256"
        },
        {
          "internalType": "address payable",
          "name": "_penaltyAddress",
          "type": "address"
        }
      ],
      "name": "createTask",
      "outputs": [],
      "payable": true,
      "stateMutability": "payable",
      "type": "function"
    },
    {
      "constant": false,
      "inputs": [
        {
          "internalType": "uint256",
          "name": "_id",
          "type": "uint256"
        }
      ],
      "name": "verifyCompletion",
      "outputs": [],
      "payable": false,
      "stateMutability": "nonpayable",
      "type": "function"
    },
    {
      "constant": false,
      "inputs": [
        {
          "internalType": "uint256",
          "name": "_id",
          "type": "uint256"
        }
      ],
      "name": "claimPenalty",
      "outputs": [],
      "payable": false,
      "stateMutability": "nonpayable",
      "type": "function"
    }
  ],
  "bytecode": "0x60806040526000805534801561001457600080fd5b50610b33806100246000396000f3fe60806040526004361061004a5760003560e01c8063042708171461004f5780638d97767214610105578063b6cb58a5146101ec578063ba9244f314610213578063ccdef1101461023d575b600080fd5b6101036004803603606081101561006557600080fd5b81019060208101813564010000000081111561008057600080fd5b82018360208201111561009257600080fd5b803590602001918460018302840111640100000000831117156100b457600080fd5b91908080601f01602080910402602001604051908101604052809392919081815260200183838082843760009201919091525092955050823593505050602001356001600160a01b0316610267565b005b34801561011157600080fd5b5061012f6004803603602081101561012857600080fd5b503561058d565b604080518881526001600160a01b0380891660208301526060820187905260808201869052841660a082015290810160c0820183600281111561016e57fe5b60ff168152602001828103825287818151815260200191508051906020019080838360005b838110156101ab578181015183820152602001610193565b50505050905090810190601f1680156101d85780820380516001836020036101000a031916815260200191505b509850505050505050505060405180910390f35b3480156101f857600080fd5b50610201610669565b60408051918252519081900360200190f35b34801561021f57600080fd5b506101036004803603602081101561023657600080fd5b503561066f565b34801561024957600080fd5b506101036004803603602081101561026057600080fd5b503561082a565b600034116102ad576040805162461bcd60e51b815260206004820152600e60248201526d09aeae6e840e6e8c2d6ca408aa8960931b604482015290519081900360640190fd5b428211610301576040805162461bcd60e51b815260206004820152601e60248201527f446561646c696e65206d75737420626520696e20746865206675747572650000604482015290519081900360640190fd5b6001600160a01b03811661035c576040805162461bcd60e51b815260206004820152601860248201527f50656e616c747920616464726573732072657175697265640000000000000000604482015290519081900360640190fd5b6001600160a01b0381163314156103a45760405162461bcd60e51b8152600401808060200182810382526023815260200180610adc6023913960400191505060405180910390fd5b600080546001018082556040805160e0810182529182523360208301528101859052346060820152608081018490526001600160a01b03831660a08201529060c082015260008054815260016020818152604092839020845181558482015192810180546001600160a01b0319166001600160a01b0390941693909317909255918301518051919261043e92600285019290910190610a40565b50606082015160038201556080820151600482015560a08201516005820180546001600160a01b0319166001600160a01b039092169190911780825560c0840151919060ff60a01b1916600160a01b83600281111561049957fe5b02179055509050507ff8e0fa0b4d3905e5509711488556554e407693d08f11122dab0999a6ae2a2a5c600054338534868660405180878152602001866001600160a01b03166001600160a01b0316815260200180602001858152602001848152602001836001600160a01b03166001600160a01b03168152602001828103825286818151815260200191508051906020019080838360005b83811015610549578181015183820152602001610531565b50505050905090810190601f1680156105765780820380516001836020036101000a031916815260200191505b5097505050505050505060405180910390a1505050565b6001602081815260009283526040928390208054818401546002808401805488516101009882161598909802600019011691909104601f810186900486028701860190975286865291956001600160a01b039091169492938301828280156106365780601f1061060b57610100808354040283529160200191610636565b820191906000526020600020905b81548152906001019060200180831161061957829003601f168201915b5050505060038301546004840154600590940154929390929091506001600160a01b03811690600160a01b900460ff1687565b60005481565b600081815260016020526040902080546106c6576040805162461bcd60e51b815260206004820152601360248201527215185cdac8191bd95cc81b9bdd08195e1a5cdd606a1b604482015290519081900360640190fd5b60006005820154600160a01b900460ff1660028111156106e257fe5b1461072c576040805162461bcd60e51b815260206004820152601560248201527415185cdac8185b1c9958591e481c995cdbdb1d9959605a1b604482015290519081900360640190fd5b80600401544211610784576040805162461bcd60e51b815260206004820152601b60248201527f446561646c696e6520686173206e6f7420706173736564207965740000000000604482015290519081900360640190fd5b60058101805460ff60a01b1916600160a11b1790819055600382015460405190916001600160a01b03169082156108fc029083906000818181858888f193505050501580156107d7573d6000803e3d6000fd5b506005820154604080518581526001600160a01b039092166020830152818101839052517f8b193d3376a80fbe0e01aa5512fcddf19c1c39f4861538f999e09db95a33581a9181900360600190a1505050565b60008181526001602052604090208054610881576040805162461bcd60e51b815260206004820152601360248201527215185cdac8191bd95cc81b9bdd08195e1a5cdd606a1b604482015290519081900360640190fd5b60006005820154600160a01b900460ff16600281111561089d57fe5b146108e7576040805162461bcd60e51b815260206004820152601560248201527415185cdac8185b1c9958591e481c995cdbdb1d9959605a1b604482015290519081900360640190fd5b60018101546001600160a01b03163314610948576040805162461bcd60e51b815260206004820152601c60248201527f4f6e6c79206f776e65722063616e206d61726b20636f6d706c65746500000000604482015290519081900360640190fd5b8060040154421115610997576040805162461bcd60e51b8152602060048201526013602482015272111958591b1a5b99481a185cc81c185cdcd959606a1b604482015290519081900360640190fd5b60058101805460ff60a01b1916600160a01b179055600381015460018201546040516001600160a01b039091169082156108fc029083906000818181858888f193505050501580156109ed573d6000803e3d6000fd5b506001820154604080518581526001600160a01b039092166020830152818101839052517f843af93d40addceac6932508439844b897d4df9e971db326d557e3cdaa9f3ebf9181900360600190a1505050565b828054600181600116156101000203166002900490600052602060002090601f016020900481019282601f10610a8157805160ff1916838001178555610aae565b82800160010185558215610aae579182015b82811115610aae578251825591602001919060010190610a93565b50610aba929150610abe565b5090565b610ad891905b80821115610aba5760008155600101610ac4565b9056fe50656e616c747920616464726573732063616e6e6f7420626520746865206f776e6572a265627a7a7231582008397fd17135b67ae0efb6b15658e5ddcd903656b6ff729e4e74335211606e9864736f6c63430005100032",
  "source": "pragma solidity ^0.5.0;\n\ncontract TaskCommitment {\n  uint public taskCount = 0;\n\n  enum Status { Pending, Completed, Failed }\n\n  struct Task {\n    uint id;\n    address payable owner;\n    string content;\n    uint stake;\n    uint deadline;\n    address payable penaltyAddress;\n    Status status;\n  }\n\n  mapping(uint => Task) public tasks;\n\n  event TaskCreated(\n    uint id,\n    address owner,\n    string content,\n    uint stake,\n    uint deadline,\n    address penaltyAddress\n  );\n\n  event TaskCompleted(uint id, address owner, uint stake);\n  event TaskFailed(uint id, address penaltyAddress, uint stake);\n\n  function createTask(\n    string memory _content,\n    uint _deadline,\n    address payable _penaltyAddress\n  ) public payable {\n    require(msg.value > 0, \"Must stake ETH\");\n    require(_deadline > now, \"Deadline must be in the future\");\n    require(_penaltyAddress != address(0), \"Penalty address required\");\n    require(_penaltyAddress != msg.sender, \"Penalty address cannot be the owner\");\n\n    taskCount++;\n    tasks[taskCount] = Task(\n      taskCount,\n      msg.sender,\n      _content,\n      msg.value,\n      _deadline,\n      _penaltyAddress,\n      Status.Pending\n    );\n\n    emit TaskCreated(\n      taskCount,\n      msg.sender,\n      _content,\n      msg.value,\n      _deadline,\n      _penaltyAddress\n    );\n  }\n\n  function verifyCompletion(uint _id) public {\n    Task storage task = tasks[_id];\n    require(task.id != 0, \"Task does not exist\");\n    require(task.status == Status.Pending, \"Task already resolved\");\n    require(msg.sender == task.owner, \"Only owner can mark complete\");\n    require(now <= task.deadline, \"Deadline has passed\");\n\n    task.status = Status.Completed;\n    uint payout = task.stake;\n    task.owner.transfer(payout);\n\n    emit TaskCompleted(_id, task.owner, payout);\n  }\n\n  function claimPenalty(uint _id) public {\n    Task storage task = tasks[_id];\n    require(task.id != 0, \"Task does not exist\");\n    require(task.status == Status.Pending, \"Task already resolved\");\n    require(now > task.deadline, \"Deadline has not passed yet\");\n\n    task.status = Status.Failed;\n    uint payout = task.stake;\n    task.penaltyAddress.transfer(payout);\n\n    emit TaskFailed(_id, task.penaltyAddress, payout);\n  }\n}\n",
  "sourcePath": "D:\\git\\projects\\blockchain-app-etherium-solidity\\contracts\\TaskCommitment.sol",
  "compiler": {
    "name": "solc",
    "version": "0.5.16+commit.9c3226ce.Emscripten.clang"
  },
  "schemaVersion": "3.4.16",
  "updatedAt": "2026-05-13T12:32:31.342Z",
  "networkType": "ethereum",
  "devdoc": {
    "methods": {}
  },
  "userdoc": {
    "methods": {}
  }
}